:020000040800F2
:10000000000003206D4700082D0D00082F0D00088B
:10001000310D0008330D0008350D00080000000008
:10002000000000000000000000000000A1440008E3
:10003000370D000800000000414500089B3E000805
:10004000BD470008BD470008BD470008BD47000880
:10005000BD470008BD470008BD470008BD47000870
:10006000BD470008BD470008BD470008BD47000860
:10007000BD470008BD470008BD470008BD47000850
:10008000BD470008BD470008BD470008BD47000840
:10009000BD470008BD470008BD470008BD47000830
:1000A000BD470008BD470008BD470008BD47000820
:1000B000BD470008BD470008BD470008BD47000810
:1000C000BD470008BD470008BD470008BD47000800
:1000D000BD470008BD470008BD470008BD470008F0
:1000E000BD470008BD470008BD470008BD470008E0
:1000F000BD470008BD470008BD470008BD470008D0
:10010000BD470008BD470008BD470008BD470008BF
:10011000BD470008BD470008BD470008390D00086D
:10012000BD470008490D0008BD470008BD4700084D
:10013000BD470008BD470008BD470008BD4700088F
:10014000BD470008BD470008BD470008BD4700087F
:10015000BD470008590D0008BD470008690D00089B
:10016000BD470008BD470008BD470008BD4700085F
:10017000BD470008BD470008BD470008000000005B
:10018000BD470008BD470008BD470008BD4700083F
:10019000BD470008BD470008BD470008BD4700082F
:0C01A0000000000000000000BD47000847
:1001B00010B5054C237833B9044B13B10448AFF3A1
:1001C00000800123237010BD6000002000000000AB
:1001D0003448000808B5034B1BB103490348AFF38B
:1001E000008008BD000000006400002034480008C2
:1001F0004A0011D212F5001211D20DD56FF47873A6
:10020000B3EB62520ED44FEAC12343F0004343EAFA
:10021000505323FA02F070474FF00000704750EA45
:10022000013002D14FF0FF3070474FF000007047AF
:1002300053B94AB9002908BF00281CBF4FF0FF314D
:100240004FF0FF3000F074B9ADF1080C6DE904CE49
:1002500000F006F8DDF804E0DDE9022304B07047A1
:100260002DE9F047089D04468E46002B4DD18A4269
:10027000944669D9B2FA82F252B101FA02F3C2F19C
:10028000200120FA01F10CFA02FC41EA030E94402D
:100290004FEA1C48210CBEFBF8F61FFA8CF708FB4E
:1002A00016E341EA034306FB07F199420AD91CEB26
:1002B000030306F1FF3080F01F81994240F21C8158
:1002C000023E63445B1AA4B2B3FBF8F008FB1033A0
:1002D00044EA034400FB07F7A7420AD91CEB0404D5
:1002E00000F1FF3380F00A81A74240F207816444A5
:1002F000023840EA0640E41B00261DB1D44000232A
:10030000C5E900433146BDE8F0878B4209D9002D8D
:1003100000F0EF800026C5E9000130463146BDE817
:10032000F087B3FA83F6002E4AD18B4202D3824281
:1003300000F2F980841A61EB030301209E46002D30
:10034000E0D0C5E9004EDDE702B9FFDEB2FA82F285
:10035000002A40F09280A1EB0C014FEA1C471FFAE3
:100360008CFE0126200CB1FBF7F307FB131140EACA
:1003700001410EFB03F0884208D91CEB010103F197
:10038000FF3802D2884200F2CB804346091AA4B259
:10039000B1FBF7F007FB101144EA01440EFB00FE2D
:1003A000A64508D91CEB040400F1FF3102D2A64592
:1003B00000F2BB800846A4EB0E0440EA03409CE731
:1003C000C6F12007B34022FA07FC4CEA030C20FADE
:1003D00007F401FA06F31C43F9404FEA1C4900FAFE
:1003E00006F3B1FBF9F8200C1FFA8CFE09FB18117B
:1003F00040EA014108FB0EF0884202FA06F20BD9EE
:100400001CEB010108F1FF3A80F08880884240F23D
:100410008580A8F102086144091AA4B2B1FBF9F081
:1004200009FB101144EA014100FB0EFE8E4508D97C
:100430001CEB010100F1FF346CD28E456AD9023801
:10044000614440EA0840A0FB0294A1EB0E01A142E6
:10045000C846A64656D353D05DB1B3EB080261EB54
:100460000E0101FA07F722FA06F3F1401F43C5E92E
:10047000007100263146BDE8F087C2F12003D84064
:100480000CFA02FC21FA03F3914001434FEA1C47A6
:100490001FFA8CFEB3FBF7F007FB10360B0C43EA98
:1004A000064300FB0EF69E4204FA02F408D91CEB48
:1004B000030300F1FF382FD29E422DD90238634446
:1004C0009B1B89B2B3FBF7F607FB163341EA0341E6
:1004D00006FB0EF38B4208D91CEB010106F1FF3835
:1004E00016D28B4214D9023E6144C91A46EA00462C
:1004F00038E72E46284605E70646E3E61846F8E6BE
:100500004B45A9D2B9EB020864EB0C0E0138A3E706
:100510004646EAE7204694E74046D1E7D0467BE7E7
:10052000023B614432E7304609E76444023842E75F
:10053000704700BF08B50268034B9A4200D008BD5F
:1005400002F0D4F8FBE700BF0014004072B6FEE7EB
:1005500000B595B03022002108A804F063F900230B
:10056000039304930593069307930193234A116C15
:1005700041F080511164126C02F080520192019A94
:1005800002931F4B1A6842F440421A601B6803F43E
:1005900040430293029B012308934FF4A023099345
:1005A00002230E934FF480020F920F221092D82252
:1005B000119212930423139308A801F033F9B0B9F0
:1005C00001F0E4FFA8B90F2303930223049300234F
:1005D00005934FF4A05306934FF4805307930521DE
:1005E00003A801F06DFB30B915B05DF804FBFFF70F
:1005F000ADFFFFF7ABFFFFF7A9FF00BF00380240D8
:100600000070004008B502F057F8FFF7A1FF4FF463
:100610007A7002F07DF800F00BF800F0FFF800F0BF
:1006200067F803F047FC02F091F803F055FCFEE791
:10063000F0B58BB0002405940694079408940994AF
:100640000194284B1A6B42F080021A631A6B02F075
:1006500080020192019A02941A6B42F004021A631A
:100660001A6B02F004020292029A03941A6B42F08F
:1006700001021A631A6B02F001020392039A0494B6
:100680001A6B42F008021A631B6B03F00803049311
:10069000049B154F22460121384601F00AFD134EF6
:1006A00022461021304601F004FD012505950695EE
:1006B0000794089405A9384601F0F6FB0823059332
:1006C0000694079505A9304601F0EEFB102305932B
:1006D000069502230793089405A9304601F0E4FB30
:1006E0000BB0F0BD0038024000080240000C024090
:1006F00008B50A480A4B03604FF4E1334360002316
:100700008360C36003610C2242618361C36100F0B6
:10071000DBFD00B908BDFFF719FFFBE73C01002036
:100720000014014030B589B000230393049305936E
:10073000069307930268334B9A4201D009B030BD4B
:1007400004460025019503F592335A6C42F02002CD
:100750005A645A6C02F020020192019A02951A6BB7
:1007600042F004021A631B6B03F004030293029B22
:10077000C0230393022304930323069308230793C0
:1007800003A9214801F090FB2048214B03604FF062
:10079000206343608560C5604FF4806303614561F9
:1007A0008561C5610562456201F00AFD18BB174B02
:1007B000E3639C631748184B03604FF0206343606A
:1007C000402383600023C3604FF480620261436171
:1007D0008361C3610362436201F0F2FC70B90D4BA7
:1007E000A3639C6300220521472001F01FFF4720DF
:1007F00001F054FFA2E7FFF7A9FED8E7FFF7A6FE36
:10080000EDE700BF00140140000802407C0000201A
:1008100028640240DC000020A064024010B582B0D1
:10082000002401940D4B1A6B42F480021A631B6B77
:1008300003F480030193019B22460521392001F036
:10084000F5FE392001F02AFF22460521452001F05E
:10085000EDFE452001F022FF02B010BD003802403D
:1008600008B50B4607490870F3204870AB20887024
:10087000CB700A716B234B710622034800F054FDC4
:1008800008BD00BFA40100203C01002008B58C4633
:100890000A490870F620487081F802C0100AC87032
:1008A000D2B20A714B719DF808308B716B23CB71FA
:1008B0000822034800F038FD08BD00BF9401002065
:1008C0003C01002008B50B4606490870FE224A701C
:1008D00098228A70CB706B230B710522024800F0BE
:1008E00023FD08BD840100203C01002010B5044612
:1008F000836800799847E37813F0070F06D02388C0
:100900004FF6FF72934201D001332380E378B0EBBE
:10091000D31F13D01A46C3F3C203013303F00703F6
:1009200063F3C502E270022B0CD9D3B260F3C71394
:10093000E370DBB26FF3C503E37003E0E3786FF3BA
:10094000C503E370E37803F00703042B00F2F9809A
:10095000DFE813F0050026005100A500D500E3787C
:10096000C3F38012B2EBD31F05D0A378082262F341
:100970000713A37010BDA3786FF30713A370E36888
:1009800013B1A16A2046984700232380A37801224F
:1009900062F30303A370E37862F30203E370E9E711
:1009A000E378C3F38012B2EBD31F11D0A3780122F6
:1009B00062F30713A370236913B1A16A2046984715
:1009C00000232380E378022262F30203E370D1E77D
:1009D0002388C82BCED9A378052262F30713A3700E
:1009E000236A13B1A16A20469847E378042262F390
:1009F0000203E370BEE7E378C3F38012B2EBD31FC8
:100A00000ED023883C2BB5D9A37803F00F03012B1C
:100A10002DD0022B37D0E3786FF30203E370A9E700
:100A2000A3786FF30713A370E36813B1A16A20469C
:100A30009847A37803F00F030F2B06D0A37803F099
:100A40000F02013262F30303A370A378022262F360
:100A50000713A370636913B1A16A20469847002366
:100A60002380E378032262F30203E37082E7A37832
:100A7000032262F30713A370A369002BCBD0A16AF2
:100A800020469847C7E7A378042262F30713A370B0
:100A9000E369002BBFD0A16A20469847BBE7E37803
:100AA000C3F38012B2EBD31F19D0A378012262F3F3
:100AB0000713A370236913B1A16A204698472388BE
:100AC0003B2B07D800232380E378022262F3020342
:100AD000E3704FE7E3786FF30203E3704AE723889C
:100AE0003C2B7FF647AF00222280A37862F30303FA
:100AF000A370E378012262F30203E3703AE7E3783C
:100B0000C3F38012B2EBD31F0ED0A378012262F39D
:100B10000713A370236913B1A16A20469847E378AD
:100B20006FF30203E37025E7A378062262F307134D
:100B3000A370636A002B3FF41DAFA16A204698475B
:100B400018E7E3786FF30203E37013E7E0B1F8B559
:100B50000D4616461F460446A9B13022002103F077
:100B600061FEA378082262F30713A370A560B6FAAA
:100B700086F14909E37861F3C713E370DBB266F3EA
:100B80008613E3702771F8BD704730B1062904D889
:100B9000023100EB81014A6083627047024660B116
:100BA000094B19680B461BB1934209D0DB6AFAE77F
:100BB000D162054B1A60002070476FF0010070474A
:100BC0004FF0FF30704700BFB4010020054B18689C
:100BD00038B110B5C46AFFF789FE2046002CF9D160
:100BE00010BD7047B4010020012801D000207047DB
:100BF00008B50821014801F055FA08BD000C024073
:100C000008B5837803F0F003402B0AD0302B0CD0CA
:100C10004FF0FF33002207490748006803F02FFA1E
:100C200008BD044B02221A80F2E7024B01221A800F
:100C3000EEE700BFE8010020F001002008B50E4CEF
:100C4000012300220D492046FFF780FF0C4D0023B1
:100C50002A4603212046FFF798FF00232A46042155
:100C60002046FFF792FF2046FFF798FFFFF7AEFF01
:100C7000052003F0ABF9F9E7B8010020E90B000803
:100C8000010C000880B582B0254C94F82020012189
:100C90002078FFF7E5FD0A2003F098F994F8482042
:100CA000012194F82800FFF7DBFD0A2003F08EF9FC
:100CB00023E01B4CD4E90C67D4E90E01FFF798FA46
:100CC000C5B230463946FFF793FA94F8483000939E
:100CD0002B4682B294F8291094F82800FFF7D6FD2D
:100CE0004FF47A7003F072F994F8481094F82800E1
:100CF000FFF7E8FD0A2003F069F90A4C4FF0FF33D3
:100D0000002221460848006803F0FBF92388012BE4
:100D1000CFD0022BF1D10A2003F058F9EDE700BF44
:100D200000000020E8010020F0010020FEE7FEE7BF
:100D3000FEE7FEE7FEE7704708B5024800F088F8D6
:100D400008BD00BFFC01002008B5024801F030FBDF
:100D500008BD00BF7C00002008B5024801F028FB58
:100D600008BD00BFDC00002008B5024800F008FC08
:100D700008BD00BF3C01002000B583B000220092F6
:100D80000D4B596C41F480415964596C01F4804118
:100D9000009100990192196C41F0805119641B6C0B
:100DA00003F080530193019B0F216FF0010001F0CC
:100DB0003DFC03B05DF804FB0038024070470000C2
:100DC00090F83D30DBB2012B37D1022380F83D3063
:100DD0000268D36843F00103D3600368194A934261
:100DE00020D0B3F1804F1DD0A2F57C42934219D0A0
:100DF00002F58062934215D002F58062934211D0D1
:100E000002F5784293420DD002F57052934209D018
:100E1000A2F59432934205D01A6842F001021A609A
:100E2000002070479A6802F00702062A07D01A6865
:100E300042F001021A600020704701207047002034
:100E4000704700BF0000014070477047704770470F
:100E500070B504460368DE681D6915F0020F10D0F6
:100E600016F0020F0DD06FF002021A610123037712
:100E700003689B6913F0030F5ED0FFF7E6FF0023C2
:100E8000237715F0040F12D016F0040F0FD023684B
:100E90006FF004021A610223237723689B6913F41D
:100EA000407F4FD02046FFF7D0FF0023237715F077
:100EB000080F12D016F0080F0FD023686FF0080249
:100EC0001A61042323772368DB6913F0030F40D0F2
:100ED0002046FFF7BAFF0023237715F0100F12D03A
:100EE00016F0100F0FD023686FF010021A6108235C
:100EF00023772368DB6913F4407F31D02046FFF766
:100F0000A4FF0023237715F0010F02D016F0010F84
:100F10002DD115F0800F02D016F0800F2FD115F0D3
:100F2000400F02D016F0400F31D115F0200F02D043
:100F300016F0200F33D170BDFFF786FF2046FFF774
:100F400085FF9CE72046FFF77FFF2046FFF77EFFE7
:100F5000ABE72046FFF778FF2046FFF777FFBAE7B9
:100F60002046FFF771FF2046FFF770FFC9E72368AF
:100F70006FF001021A612046FFF7DCFAC9E7236827
:100F80006FF080021A61204600F0A7F8C7E72368D7
:100F90006FF040021A612046FFF759FFC5E723684A
:100FA0006FF020021A61204600F096F8C3E70000B7
:100FB0000368324A904212D0B0F1804F0FD0A2F5B0
:100FC0007C4290420BD002F58062904207D002F53D
:100FD0008062904203D002F57842904203D123F020
:100FE00070034A681343254A90422AD0B0F1804FDB
:100FF00027D0A2F57C42904223D002F58062904235
:101000001FD002F5806290421BD002F578429042D8
:1010100017D002F57052904213D002F580629042D0
:101020000FD002F5806290420BD0A2F59832904228
:1010300007D002F58062904203D002F580629042B0
:1010400003D123F44073CA68134323F080034A6931
:1010500013438A68C2620A688262084A904203D0D7
:1010600002F58062904201D10A690263026842F08F
:1010700004020260012242610360704700000140E7
:1010800040B310B5044690F83D30F3B1022384F824
:101090003D30214651F8040BFFF78AFF012384F805
:1010A000463084F83E3084F83F3084F8403084F88D
:1010B000413084F8423084F8433084F8443084F876
:1010C000453084F83D30002010BD80F83C30FFF7FB
:1010D00075FEDBE70120704770477047026802F138
:1010E0000C0353E8003F23F0C0030C3242E8003108
:1010F0000029F3D1202380F841307047026802F1C3
:101100000C0353E8003F23F490730C3242E80031A3
:101110000029F3D1026802F1140353E8003F23F0E1
:101120000103143242E800310029F3D1036B012B93
:1011300005D0202380F84230002303637047026803
:1011400002F10C0353E8003F23F010030C3242E895
:1011500000310029F3D1ECE790F84130DBB2212BCC
:1011600001D0022070478368B3F5805F17D0036A0F
:101170005A1C02621A7803685A60C38C9BB2013B06
:101180009BB2C3844BB90268D36823F08003D36059
:101190000268D36843F04003D360002070470369BE
:1011A000002BE4D1036A1B880268C3F30803536071
:1011B000036A02330362E0E738B504460268136944
:1011C00023F44053C1680B431361836802691343DE
:1011D00042691343C2691A430168CB6823F416437A
:1011E00023F00C031343CB600268536923F440736C
:1011F00081690B4353610368314A934206D002F57B
:101200008062934202D000F011FE01E000F01EFE69
:10121000E369B3F5004F29D00021031849411B1899
:1012200041F10001C90041EA5371DB0018186368FD
:101230004FEA83024FEA937341F10001FEF7F8FF92
:10124000204DA5FB00325109642303FB11031B0150
:101250003233A5FB03235B0903F0F00202EB01121A
:1012600003F00F03216813448B6038BD002302187C
:1012700043EB0301121841F10001C90041EA527128
:10128000D200101841F10001626892185B41FEF72C
:10129000CFFF0C4DA5FB00325109642303FB110362
:1012A000DB003233A5FB03235B095A0002F4F8721A
:1012B00002EB011203F00703216813448B60D4E7AB
:1012C000001001401F85EB5160B310B5044690F843
:1012D000413013B3242384F841302268D36823F4C7
:1012E0000053D3602046FFF767FF2268136923F499
:1012F000904313612268536923F02A0353612268E3
:10130000D36843F40053D36000206064202384F842
:10131000413084F84230606310BD80F84030FFF700
:1013200001FAD7E70120704738B5134690F84120FD
:10133000D2B2202A36D10446002935D00BB901207B
:1013400031E001628384C38400224264212084F856
:101350004100A06B154DC563A06B154D0564A06BD6
:10136000144DC564A06B026522680432A06B00F0C6
:101370008DFF30B110236364202384F841300120B5
:1013800011E023686FF040021A60226802F1140332
:1013900053E8003F43F08003143242E80031002953
:1013A000F3D100E0022038BD0120FCE7BB130008A8
:1013B0002314000831140008704708B50346806BF9
:1013C0001B681B6813F4807F1AD10023C384026852
:1013D00002F1140353E8003F23F08003143242E883
:1013E00000310029F3D1026802F10C0353E8003FF9
:1013F00043F040030C3242E800310029F3D108BD2C
:10140000FFF7DAFFFBE708B50168CA6822F040027F
:10141000CA60202280F84120FFF7CEFF002008BDDF
:10142000704708B5806BFFF7FBFF08BD704770473A
:1014300010B5846B23685A6994F84130DBB2212BD4
:1014400010D023685A6902F0400294F84230DBB2AF
:10145000222B11D0636C43F0100363642046FFF726
:10146000E6FF10BD02F08002002AEAD00023E384E8
:101470002046FFF733FEE4E7002AEBD00023E385A4
:101480002046FFF73BFEE5E708B5806B0023C385E8
:10149000FFF7CDFF08BD704790F84230DBB2222B3A
:1014A00069D18368B3F5805F4FD0826AB3F5805FFE
:1014B00004D0002B56D10369002B53D103685B681D
:1014C0001370836A01338362C38D9BB2013B9BB26D
:1014D000C385002B51D100B583B00268D36823F0D7
:1014E0002003D3600268D36823F48073D36002685A
:1014F000536923F001035361202380F84230002315
:101500004363036B012B33D100230363026802F1B1
:101510000C0353E8003F23F010030C3242E8003183
:101520000029F3D103681A6812F0100F06D00022C8
:1015300001921A6801925B680193019B818DFFF70C
:10154000AAFF002003B05DF804FB0269002AACD1B9
:10155000826A03685B68C3F308031380836A0233FB
:101560008362B1E703685B6803F07F031370A8E749
:10157000FFF75CFFE5E7022070470020704700009E
:1015800030B583B0044602681368D068516913F01F
:101590000F0505D113F0200F02D010F0200F19D144
:1015A0002DB111F0010119D110F4907F16D1216BEA
:1015B00001297DD013F0800F03D010F0800F40F090
:1015C000268113F0400F03D010F0400F40F023812C
:1015D00003B030BD2046FFF75FFFF9E713F0010FBE
:1015E00006D010F4807F03D0626C42F00102626486
:1015F00013F0040F04D019B1626C42F0020262646D
:1016000013F0020F04D019B1626C42F0040262645C
:1016100013F0080F07D010F0200F00D119B1626C41
:1016200042F008026264626C002AD1D013F0200FED
:1016300002D010F0200F29D123685B6903F040032A
:10164000626C12F0080F00D163B32046FFF756FD1D
:1016500023685B6913F0400F20D0226802F1140365
:1016600053E8003F23F04003143242E800310029E0
:10167000F3D1E36B73B16A4A1A65E06B00F085FE43
:101680000028A5D0E06B036D9847A1E72046FFF73F
:1016900003FFD1E72046FFF7CAFE99E72046FFF790
:1016A000C6FE95E72046FFF7C2FE002363648FE77E
:1016B00013F0100F3FF47EAF10F0100F3FF47AAF2D
:1016C000002301931368019353680193019B5369AD
:1016D00013F0400F5FD0E26B13685B689BB2002B86
:1016E0004AD0A18D994247D9E385D369B3F5807F6C
:1016F00037D0226802F10C0353E8003F23F48073D3
:101700000C3242E800310029F3D1226802F11403BF
:1017100053E8003F23F00103143242E8003100296E
:10172000F3D1226802F1140353E8003F23F0400391
:10173000143242E800310029F3D1202384F84230EA
:1017400000232363226802F10C0353E8003F23F0D7
:1017500010030C3242E800310029F3D1E06B00F0B5
:10176000CAFD02236363A18DE38D9BB2C91A89B2BE
:101770002046FFF790FE2BE7A18D99427FF428AF1A
:10178000D369B3F5807F7FF423AF022363632046E0
:10179000FFF781FE1CE7A18DE38D9BB2C91A89B2C8
:1017A000E38D9BB2002B3FF413AF00293FF410AF41
:1017B000226802F10C0353E8003F23F490730C32CB
:1017C00042E800300028F3D1226802F1140353E804
:1017D000003F23F00103143242E800300028F3D127
:1017E000202384F8423000232363226802F10C0393
:1017F00053E8003F23F010030C3242E80030002889
:10180000F3D1022363632046FFF745FEE0E620465E
:10181000FFF7A2FCDCE62046FFF7F5FDD8E600BFA7
:1018200089140008002800F0E08170B582B00446F9
:10183000036813F0010F3BD09F4B9B6803F00C0330
:10184000042B2CD09C4B9B6803F00C03082B21D05D
:101850006368B3F5803F4FD0B3F5A02F52D0964BBD
:101860001A6822F480321A601A6822F480221A6000
:101870006368002B50D000F045FF05468E4B1B6877
:1018800013F4003F14D100F03DFF401B6428F5D94C
:101890000320B1E1884B5B6813F4800FD8D0864BEE
:1018A0001B6813F4003F03D06368002B00F09F8196
:1018B000236813F0020F54D07F4B9B6813F00C0F7A
:1018C0003ED07D4B9B6803F00C03082B33D0E368BC
:1018D000002B68D0794B01221A6000F013FF0546F7
:1018E000754B1B6813F0020F54D100F00BFF401B27
:1018F0000228F5D903207FE16F4A136843F480334F
:101900001360B5E76C4B1A6842F480221A601A68BB
:1019100042F480321A60ABE700F0F4FE0546664BF5
:101920001B6813F4003FC3D000F0ECFE401B64289A
:10193000F5D9032060E1604B5B6813F4800FC6D1DA
:101940005D4B1B6813F0020F03D0E368012B40F0DE
:101950005081594A136823F0F803216943EAC1030F
:101960001360236813F0080F42D063696BB3534BC5
:101970000122C3F8802E00F0C5FE05464E4B5B6F7A
:1019800013F0020F34D100F0BDFE401B0228F5D940
:10199000032031E1484A136823F0F803216943EA40
:1019A000C1031360DDE7454B00221A6000F0AAFE78
:1019B0000546414B1B6813F0020FD2D000F0A2FE87
:1019C000401B0228F5D9032016E13C4B0022C3F846
:1019D000802E00F097FE0546374B5B6F13F0020F29
:1019E00006D000F08FFE401B0228F5D9032003E14A
:1019F000236813F0040F77D02F4B1B6C13F0805F1C
:101A000033D1002301932C4B1A6C42F080521A649C
:101A10001B6C03F080530193019B0125284B1B682D
:101A200013F4807F23D0A368012B34D0052B38D04A
:101A3000214B1A6F22F001021A671A6F22F004027A
:101A40001A67A368002B3DD000F05CFE06461A4BD7
:101A50001B6F13F0020F46D100F054FE801B41F2C1
:101A600088339842F3D90320C6E00025D6E7144A0C
:101A7000136843F48073136000F044FE0646104B75
:101A80001B6813F4807FCED100F03CFE801B02283F
:101A9000F5D90320B0E0084A136F43F00103136740
:101AA000CFE7054B1A6F42F004021A671A6F42F033
:101AB00001021A67C5E700BF003802400000474234
:101AC0000070004000F01EFE0646524B1B6F13F0E4
:101AD000020F08D000F016FE801B41F288339842B6
:101AE000F3D9032088E0EDB9A369002B00F08380CF
:101AF000484A926802F00C02082A51D0022B17D0F3
:101B0000454B00221A6600F0FDFD0446414B1B6860
:101B100013F0007F42D000F0F5FD001B0228F5D93C
:101B2000032069E03B4A136C23F080531364DBE726
:101B3000394B00221A6600F0E5FD0546354B1B685F
:101B400013F0007F06D000F0DDFD401B0228F5D920
:101B5000032051E0E369226A1343626A43EA821375
:101B6000A26A5208013A43EA0243E26A43EA026384
:101B7000284A5360284B01221A6600F0C3FD044630
:101B8000244B1B6813F0007F06D100F0BBFD001B47
:101B90000228F5D903202FE000202DE000202BE0C3
:101BA000012B2BD01B4B5B6803F48001E26991424F
:101BB00026D103F03F02216A8A4223D1616A47F6A7
:101BC000C0721A40B2EB811F1ED103F44031A26AE9
:101BD0005208013AB1EB024F18D103F07063E26A88
:101BE000B3EB026F14D1002006E001207047012002
:101BF00002E0012000E0002002B070BD0120FBE700
:101C00000120F9E70120F7E70120F5E70120F3E7DC
:101C10000120F1E7003802400000474208B5254B9B
:101C20009B6803F00C03042B3FD0082B3FD1214BC2
:101C30005A6802F03F025B6813F4800F12D01D4B0C
:101C40005968C1F388111C480023A1FB0001FEF76D
:101C5000EFFA184B5B68C3F3014301335B00B0FB41
:101C6000F3F025E0134B5968C1F3881C4FEA4C117F
:101C7000B1EB0C006EEB0E0E4FEA8E1343EA90634D
:101C80008101091A63EB0E03DB0043EA5173C900BB
:101C900011EB0C0C43F10003990200234FEA8C2056
:101CA00041EA9C51FEF7C4FAD3E7034800E0034839
:101CB00008BD00BF0038024040787D010024F400D8
:101CC000002800F09B8070B50D4604464F4B1B6802
:101CD00003F00F038B4208D2CBB24C4A1370136847
:101CE00003F00F038B4240F08B80236813F0020F48
:101CF00017D013F0040F04D0454A936843F4E0531F
:101D00009360236813F0080F04D0414A936843F4AA
:101D1000604393603E4A936823F0F003A1680B434D
:101D20009360236813F0010F32D06368012B21D038
:101D30009A1E012A25D9364A126812F0020F61D084
:101D400033498A6822F0030213438B6000F0DAFC07
:101D500006462F4B9B6803F00C036268B3EB820FBF
:101D600016D000F0CFFC801B41F288339842F0D9A6
:101D7000032042E0264A126812F4003FE0D101201D
:101D80003BE0234A126812F0007FD9D1012034E0F1
:101D90001E4B1B6803F00F03AB4207D9EAB21B4B83
:101DA0001A701B6803F00F03AB422DD1236813F0A8
:101DB000040F06D0164A936823F4E053E1680B43FE
:101DC0009360236813F0080F07D0114A936823F437
:101DD0006043216943EAC1039360FFF71FFF0C4B87
:101DE0009B68C3F303130B4AD35CD8400A4B1860BB
:101DF0000A4B186800F0D2FC002070BD012070472B
:101E00000120FAE70120F8E70120F6E7003C024054
:101E100000380240544800085800002054000020B8
:101E2000014B1868704700BF5800002008B5FFF745
:101E3000F7FF044B9B68C3F38223034AD35CD8406B
:101E400008BD00BF003802406448000808B5FFF72D
:101E5000E7FF044B9B68C3F34233034AD35CD8408B
:101E600008BD00BF00380240644800080F2303602B
:101E70000B4B9A6802F0030242609A6802F0F0028B
:101E800082609A6802F4E052C2609B68DB0803F447
:101E9000E0530361034B1B6803F00F030B607047B3
:101EA00000380240003C024000230F2B00F2F1807A
:101EB00070B582B061E085685E000324B44025EA15
:101EC0000405CC68B4402C438460456825EA0205CB
:101ED0004C68C4F300129A402A4342605BE0DC087D
:101EE000083450F8246003F0070295000F22AA403E
:101EF00026EA020E0A69AA4042EA0E0240F82420AD
:101F00005DE0092200E0002202FA0EF22A430234C8
:101F1000604D45F82420604A94686FEA0C0224EA78
:101F20000C054E6816F4801F01D04CEA04055A4C8B
:101F3000A560E46802EA04054E6816F4001F01D0AB
:101F40004CEA0405544CE560646802EA04054E68F6
:101F500016F4003F01D04CEA04054F4C656024683C
:101F600022404D6815F4803F01D04CEA04024A4CEF
:101F7000226001330F2B00F28A8001229A400C6804
:101F800004EA020C32EA0404F3D14C6804F00304BE
:101F9000013C012C8FD94A6802F00302032A09D0C0
:101FA000C4685D000322AA4024EA02048A68AA40A9
:101FB0002243C2604A6802F00302022A8FD00468FA
:101FC0004FEA430E032202FA0EF224EA02044A68A0
:101FD00002F0030202FA0EF2224302604A6812F48F
:101FE000403FC6D0002201922C4A546C44F48044F5
:101FF0005464526C02F480420192019A9C08A51C20
:10200000244A52F8255003F003024FEA820E0F22B1
:1020100002FA0EF225EA0205214A90423FF473AF1C
:1020200002F58062904222D002F58062904220D078
:1020300002F5806290421ED002F5806290421CD070
:1020400002F5806290421AD002F58062904218D068
:1020500002F58062904216D002F58062904214D060
:1020600002F5806290423FF44CAF0A224CE7012215
:102070004AE7022248E7032246E7042244E7052212
:1020800042E7062240E707223EE708223CE702B08B
:1020900070BD704700380140003C014000380240EC
:1020A000000002400369194201D00120704700205E
:1020B00070470AB18161704709048161704730B48B
:1020C00005682C6824F480242C60046863608368AD
:1020D000402B05D0036899600368DA6030BC704714
:1020E00003689A600368D960F8E7000010B40368D9
:1020F000D9B210390C4AA2FB014212090B4CA25C66
:10210000C2655F2909D923F47F7323F003030433E5
:102110008365806D5DF8044B704723F47F7323F073
:1021200003038365F5E700BFABAAAAAA4C480008E1
:10213000836A826992B9012B0AD0022B02D00BB1BB
:1021400000207047C36A13F0807F28D100207047B9
:10215000C36AB3F1C07F24D000207047B2F5005F9E
:1021600009D0022B25D9032B25D1C36A13F0807F18
:1021700023D100207047032B03D8DFE803F01404B9
:10218000140A00207047C36A13F0807F0DD100202D
:102190007047C36AB3F1C07F09D0002070470120A7
:1021A00070470120704701207047012070470120CF
:1021B00070470120704700207047012070470000E1
:1021C00070B5044600F09EFA002C5BD00546022351
:1021D00084F83530002384F834302268136823F003
:1021E0000103136023681A6812F0010F0AD000F08F
:1021F00089FA431B052BF5D920236365032084F856
:10220000350070BD1A68204810406168A2680A4312
:10221000E1680A4321690A4361690A43A1690A43E3
:10222000E1690A43216A0A430243616A04291ED014
:102230001A602668756925F00705636A1D43042B3B
:1022400007D1A36A1D43E36A1BB12046FFF770FF65
:1022500090B975612046FFF749FFE26D3F23934037
:10226000836000206065012384F83530C9E7E16AA6
:10227000206B01430A43DBE740236365012084F8B8
:102280003500BEE70120BCE73F8010F038B50446BA
:10229000856D90F8340001282BD0012084F834009B
:1022A00094F83500C0B2012804D0002384F83430FB
:1022B000022038BD022084F83500002060652046E9
:1022C000FFF7FDFEE26D3F239340AB602268136889
:1022D00043F016031360236C23B12268136843F0A4
:1022E000080313602268136843F0010313600020A1
:1022F000DFE70220DDE770B50446866D00F002FAE4
:1023000094F83530DBB2022B06D0802363650023BE
:1023100084F83430012070BD05462268136823F02C
:10232000160313602268536923F080035361236C02
:10233000E3B12268136823F008031360226813686E
:1023400023F00103136023681B6813F0010F11D001
:1023500000F0D8F9431B052BF5D920236365032032
:1023600084F83500002384F83430D4E7A36C002BC4
:10237000DFD1E3E7E26D3F239340B360012384F8AC
:102380003530002084F83400C5E790F83530DBB2F2
:10239000022B03D08023436501207047052380F87A
:1023A00035300268136823F0010313600020704782
:1023B000F0B583B0044600230193724B1D68724B45
:1023C000A3FB0535AD0A876D3E68C26D08239340B7
:1023D000334210D003681A6812F0040F0BD01A6849
:1023E00022F004021A60C26D08239340BB60436D63
:1023F00043F001034365E26D01239340334209D06A
:102400002268526912F0800F04D0BB60636D43F004
:1024100002036365E26D04239340334209D02268CE
:10242000126812F0020F04D0BB60636D43F0040326
:102430006365E26D10239340334224D02268126812
:1024400012F0080F1FD0BB6023681A6812F4802FA7
:102450000DD01B6813F4002F04D1236C9BB12046D0
:10246000984710E0A36C73B1204698470BE01A68B8
:1024700012F4807F03D11A6822F008021A60236CDC
:102480000BB120469847E26D20239340334255D04C
:102490002268126812F0100F50D0BB6094F83530EB
:1024A000DBB2052B0ED023681A6812F4802F33D0CC
:1024B0001B6813F4002F2AD1636C002B3ED02046FA
:1024C00098473BE02268136823F0160313602268E4
:1024D000536923F080035361236CA3B1226813680E
:1024E00023F008031360E26D3F239340BB60012398
:1024F00084F83530002384F83430236D002B3FD02E
:10250000204698473CE0A36C002BE7D1EBE7E36B58
:10251000A3B12046984711E01A6812F4807F09D1D0
:102520001A6822F010021A60012384F83530002363
:1025300084F83430E36B0BB120469847636DFBB1F0
:10254000636D13F0010F17D0052384F8353022682E
:10255000136823F001031360019B01330193AB4225
:1025600004D823681B6813F0010FF5D1012384F808
:102570003530002384F83430E36C0BB120469847A3
:1025800003B0F0BD58000020B5814E1B10B582B0DD
:1025900000230193194B1A6C42F080521A641B6C91
:1025A00003F080530193019B154B01221A6400F044
:1025B000A9F80446134B5B6813F4803F08D100F080
:1025C000A1F8001BB0F57A7FF4D9032002B010BD4A
:1025D0000B4B01225A6400F095F80446094B5B68E6
:1025E00013F4003F07D100F08DF8001BB0F57A7F9F
:1025F000F4D90320EAE70020E8E700BF00380240F2
:1026000000000E4200700040074AD36823F4E063E4
:102610001B041B0C000200F4E060034343F0BF63A3
:1026200043F40033D360704700ED00E000B5194B70
:10263000DB68C3F30223C3F1070CBCF1040F28BF0E
:102640004FF0040C03F1040EBEF1060F18D9033B42
:102650004FF0FF3E0EFA0CFC21EA0C0199400EFAF5
:1026600003F322EA0303194300280BDB0901C9B273
:1026700000F1604000F5614080F800135DF804FB54
:102680000023E5E700F00F000901C9B2024B19541D
:10269000F4E700BF00ED00E014ED00E0002807DBE8
:1026A00000F01F02400901239340024A42F8203003
:1026B000704700BF00E100E008B50B4B1A6842F418
:1026C00000721A601A6842F480621A601A6842F452
:1026D00080721A600320FFF797FF0F2000F05EF86A
:1026E000FEF74AFB002008BD003C0240034A116887
:1026F000034B1B780B441360704700BFEC010020B4
:1027000050000020014B1868704700BFEC0100200A
:1027100038B50446FFF7F6FF0546B4F1FF3F02D097
:10272000044B1B781C44FFF7EDFF401BA042FAD37B
:1027300038BD00BF50000020034AD2F8883043F46F
:102740007003C2F88830704700ED00E008B50B4A0E
:102750000221102001F048FC094B1860094A0021B1
:10276000094801F0D5FB094B1860094A00210948C6
:1027700001F0CEFB084B186008BD00BF8C48000874
:10278000F0010020A44800083D0C0008F4010020DE
:10279000C8480008850C0008F801002030B589B051
:1027A000044600230193214B1A6C42F020021A6464
:1027B0001B6C03F020030193019B02A903A8FFF700
:1027C00055FB069BCBB9FFF731FB03461848A0FB2E
:1027D00003239B0C013B1748174A026040F2E73283
:1027E000C26043600023036183608361FEF748FC9D
:1027F000054630B1284609B030BDFFF717FB43004E
:10280000E4E70C48FEF7DCFA05460028F2D1372051
:10281000FFF744FF0F2C01D90125EBE700222146E9
:102820003720FFF703FF054B1C60E3E70038024049
:1028300083DE1B43FC0100200014004054000020F4
:1028400000F1080343604FF0FF328260C360036110
:1028500000230360704700230361704743684B60A7
:102860009A688A6051609960086103680133036067
:10287000704730B40D68B5F1FF3F11D000F1080387
:102880001C465B681A68AA42FAD963684B60996073
:102890008C606160086103680133036030BC70477D
:1028A0000469F2E70369416882688A60416851609F
:1028B0005A68824206D0002202611A68013A1A6000
:1028C0001868704782685A60F5E710B5044601F051
:1028D000F9FDA26BE36B9A4204D0002401F014FED0
:1028E000204610BD0124F9E710B5044601F0EAFDC9
:1028F000A36B23B9012401F007FE204610BD00247C
:10290000F9E770B504461546866B026C5AB9036840
:102910001BB100200136A66370BD806801F04CF841
:102920000023A360F6E76DB9406801F06DFF226CEB
:10293000636813446360A268934219D32368636099
:102940002846E7E7C06801F05FFF226C5142E36868
:102950009B1AE3602268934202D2A3680B44E360AF
:10296000022D01D00020D5E726B1013E0020D1E79D
:102970002846CFE70020CDE70346026C6AB110B5C8
:102980000846D9681144D9609C68A14201D31968EE
:10299000D960D96801F038FF10BD704738B50546D9
:1029A00001F090FD95F8454064B201E0013C64B24D
:1029B000002C0ADD6B6A43B105F1240000F052FFE0
:1029C0000028F3D000F0E2FFF0E7FF2385F8453060
:1029D00001F09AFD01F076FD95F8444064B201E003
:1029E000013C64B2002C0ADD2B6943B105F11000F3
:1029F00000F038FF0028F3D000F0C8FFF0E7FF2315
:102A000085F8443001F080FD38BD38B5E0B10D46A1
:102A1000044601F057FD2368E26B216C01FB023094
:102A2000A0600020A0636360013A02FB0133E36011
:102A3000FF2384F8443084F84530FDB9236963B935
:102A400001F062FD012038BD4FF0500383F311887F
:102A5000BFF36F8FBFF34F8FFEE704F1100000F05C
:102A600001FF0028ECD04FF0E0234FF08052C3F874
:102A7000042DBFF34F8FBFF36F8FE1E704F1100018
:102A8000FFF7DEFE04F12400FFF7DAFED8E738B5E1
:102A90001D46049C0B4649B92460E0632364012170
:102AA0002046FFF7B2FF84F84C5038BD2260F4E7AF
:102AB00040B94FF0500383F31188BFF36F8FBFF31A
:102AC0004F8FFEE710B584B01C46844653B192B1D7
:102AD00089B94FF0500383F31188BFF36F8FBFF3B1
:102AE0004F8FFEE74FF0500383F31188BFF36F8FD2
:102AF000BFF34F8FFEE76AB150230393039B502B24
:102B000013D04FF0500383F31188BFF36F8FBFF3DF
:102B10004F8FFEE70029EFD04FF0500383F3118869
:102B2000BFF36F8FBFF34F8FFEE7039B012384F842
:102B3000463000949DF818306046FFF7A8FF204605
:102B400004B010BD40B94FF0500383F31188BFF3B8
:102B50006F8FBFF34F8FFEE7F0B583B00D4614467D
:102B6000064601FB00F0503001F088FB074650B1EB
:102B7000002380F846300090234600F15002294699
:102B80003046FFF784FF384603B0F0BDF0B585B09E
:102B9000019288B10F461D460446B1B1022D20D1E5
:102BA000E36B012B1DD04FF0500383F31188BFF36B
:102BB0006F8FBFF34F8FFEE74FF0500383F3118801
:102BC000BFF36F8FBFF34F8FFEE7036C002BE5D091
:102BD0004FF0500383F31188BFF36F8FBFF34F8F14
:102BE000FEE700F0D9FE064658B9019B002B48D0FD
:102BF0004FF0500383F31188BFF36F8FBFF34F8FF4
:102C0000FEE700263DE02A4639462046FFF779FEDA
:102C1000636A7BB948B14FF0E0234FF08052C3F8AC
:102C2000042DBFF34F8FBFF36F8F01F06DFC0120B8
:102C300005B0F0BD04F1240000F014FE0028F4D02B
:102C40004FF0E0234FF08052C3F8042DBFF34F8FB5
:102C5000BFF36F8FE9E701F057FC0020E8E702A817
:102C600000F046FE012619E0002384F8443021E0FC
:102C7000002384F8453023E02046FFF78FFE00F064
:102C8000D1FC01F01FFCA26BE36B9A42BBD3022D77
:102C9000B9D0019B002BDED0002EE0D001F034FC37
:102CA00000F026FC01F00EFC94F8442052B2B2F180
:102CB000FF3FD9D094F8452052B2B2F1FF3FD7D0B0
:102CC00001F022FC01A902A800F01EFED8B920469E
:102CD000FFF7FBFD0028CFD0019904F1100000F0B0
:102CE0008DFD2046FFF75AFE00F09CFC0028C8D15D
:102CF0004FF0E0234FF08052C3F8042DBFF34F8F05
:102D0000BFF36F8FBDE72046FFF748FE00F08AFC57
:102D100000208DE72DE9F84390B10F4616461C467A
:102D20000546B1B1022C20D1EB6B012B1DD04FF029
:102D3000500383F31188BFF36F8FBFF34F8FFEE70C
:102D40004FF0500383F31188BFF36F8FBFF34F8FA2
:102D5000FEE7036C002BE5D04FF0500383F311889E
:102D6000BFF36F8FBFF34F8FFEE701F0D1FCEFF39E
:102D700011894FF0500383F31188BFF36F8FBFF3B6
:102D80004F8FAA6BEB6B9A4206D3022C04D0002023
:102D900089F31188BDE8F88395F845804FFA88F8E3
:102DA000AB6B224639462846FFF7ABFDB8F1FF3F33
:102DB00006D008F101035BB285F845300120E7E752
:102DC0006B6A0BB90120E3E705F1240000F04AFD2E
:102DD00018B126B101203060DAE70120D8E70120E0
:102DE000D6E7F0B585B0019290B10F460446C1B167
:102DF00000F0D2FD064600BB019B002B5ED04FF0D9
:102E0000500383F31188BFF36F8FBFF34F8FFEE73B
:102E10004FF0500383F31188BFF36F8FBFF34F8FD1
:102E2000FEE7036C002BE3D04FF0500383F31188CF
:102E3000BFF36F8FBFF34F8FFEE700263EE03946AA
:102E40002046FFF799FD013DA563236923B901F0F1
:102E50005BFB012005B0F0BD04F1100000F002FDA5
:102E60000028F4D04FF0E0234FF08052C3F8042D37
:102E7000BFF34F8FBFF36F8FE9E701F045FB0020F1
:102E8000E8E702A800F034FD012621E0002384F8E1
:102E9000443029E0002384F845302BE02046FFF73A
:102EA0007DFD00F0BFFB09E02046FFF777FD00F055
:102EB000B9FB2046FFF718FD00283FD101F002FBC7
:102EC000A56B002DBBD1019B002BD6D0002ED8D0F6
:102ED00001F01AFB00F00CFB01F0F4FA94F8443016
:102EE0005BB2B3F1FF3FD1D094F845305BB2B3F1A0
:102EF000FF3FCFD001F008FB01A902A800F004FDBC
:102F00000028D1D12046FFF7EFFC0028C6D0019958
:102F100004F1240000F072FC2046FFF73FFD00F0B2
:102F200081FB0028CAD14FF0E0234FF08052C3F854
:102F3000042DBFF34F8FBFF36F8FBFE7002089E7EA
:102F40002DE9F843B0B10D4616460446D9B101F05B
:102F5000DFFBEFF311884FF0500383F31188BFF3C9
:102F60006F8FBFF34F8FA76BCFB9002088F3118805
:102F7000BDE8F8834FF0500383F31188BFF36F8FE0
:102F8000BFF34F8FFEE7036C002BE0D04FF05003F0
:102F900083F31188BFF36F8FBFF34F8FFEE794F871
:102FA00044904FFA89F929462046FFF7E5FC013F96
:102FB000A763B9F1FF3F06D009F101035BB284F8C2
:102FC00044300120D2E723690BB90120CEE704F198
:102FD000100000F047FC18B126B101203060C5E7B1
:102FE0000120C3E70120C1E70023072B0CD8074AC3
:102FF00052F833200AB10133F7E7044A42F833109C
:1030000002EBC30358607047704700BF44020020C2
:1030100070B504460D46164601F054FA94F8443053
:103020005BB2B3F1FF3F0DD094F845305BB2B3F122
:10303000FF3F0BD001F068FAA36B5BB12046FFF7AE
:10304000ADFC70BD002384F84430EDE7002384F824
:103050004530EFE73246294604F1240000F0E6FB54
:10306000ECE70000084B1B681B6823B9074B4FF0C7
:10307000FF321A607047044B1B68DB68DB685A68D4
:10308000024B1A60704700BF880200203007002002
:103090002DE9F04780460D4617469946089EDDF813
:1030A00024A00A9C9200A521206B01F0BBFB236B9E
:1030B00007F18042013A03EB820727F00707B5B317
:1030C0004FF0000CBCF10F0F0BD815F80C2004EBDF
:1030D0000C0383F8342015F80C3013B10CF1010CFB
:1030E000F0E7002384F84330372E00D93726E66214
:1030F000E66400252565201DFFF7ADFB04F11800EF
:10310000FFF7A9FB2461C6F13806A6616462656514
:1031100084F858504A464146384601F0A9F92060E3
:10312000BAF1000F01D0CAF80040BDE8F0870023D3
:1031300084F83430D8E7000038B5002407E004EB09
:10314000840293000E481844FFF77AFB0134372CB1
:10315000F5D90C4D2846FFF773FB0B4C2046FFF7C3
:103160006FFB0A48FFF76CFB0948FFF769FB09484A
:10317000FFF766FB084B1D60084B1C6038BD00BFA5
:103180009002002004070020180700203C070020C0
:103190006807002054070020880200208C020020CD
:1031A00010B5044601F08EF9224A1368013313600A
:1031B000214B1B685BB1214B1B686BB91E4B1B6815
:1031C000DA6AE36A9A4207D81B4B1C6004E01A4B88
:1031D0001C601368012B29D0194A1368013313604E
:1031E0006364E06A174B1B68984201D9154B18605D
:1031F00000EB8000211D144B03EB8000FFF72EFB3A
:1032000001F082F90D4B1B687BB10B4B1B68DA6A2E
:10321000E36A9A4209D24FF0E0234FF08052C3F89C
:10322000042DBFF34F8FBFF36F8F10BDFFF784FFE7
:10323000D2E700BFF00600208402002050070020E3
:10324000FC060020000700209002002010B5044674
:1032500090F8593063B1012B11D0022B0ED04FF0F2
:10326000500383F31188BFF36F8FBFF34F8FFEE7D7
:10327000006B01F081F8204601F07EF810BD01F0EE
:103280007BF8FBE70F4B1B68D3B110B501F01AF9BF
:103290000D4BDB68DC68201DFFF704FB0B4A13684D
:1032A000013B1360074A1368013B136001F02CF9DE
:1032B0002046FFF7CBFF034B1B68002BE6D110BD68
:1032C000704700BFF406002068070020F0060020C9
:1032D00008B5FFF7D7FF074B1B68012BF9D94FF053
:1032E000E0234FF08052C3F8042DBFF34F8FBFF39C
:1032F0006F8FEEE79002002070B504460D46174B25
:103300001E68174B18680430FFF7CCFAB4F1FF3F82
:103310000DD03444124B1B685C60A64210D9114B8F
:1033200018680F4B19680431FFF7A3FA70BD002D20
:10333000EFD00B4B196804310B48FFF78FFAF5E714
:103340000A4B1868064B19680431FFF792FA084BCC
:103350001B68A342EAD9064B1C60E7E77C07002004
:10336000840200208C0200205407002088020020E4
:103370003007002030B587B00B9C7CB10C9DB5B1F7
:103380005C250495049D5C2D1AD04FF0500383F307
:103390001188BFF36F8FBFF34F8FFEE74FF05003DD
:1033A00083F31188BFF36F8FBFF34F8FFEE74FF0AA
:1033B000500383F31188BFF36F8FBFF34F8FFEE786
:1033C000049D0C9D2C63022485F85940002403942D
:1033D000029505AC01940A9C0094FFF759FE0C98E5
:1033E000FFF7DEFE059807B030BD2DE9F04385B04C
:1033F0000746884614461E46900000F03FFF00B383
:1034000081465C2000F03AFF0546B0B1C0F830902C
:10341000E5B1002385F85930039302950D9B019384
:103420000C9B00933346224641463846FFF730FE58
:103430002846FFF7B5FE012005E0484600F09CFF56
:10344000E6E74FF0FF3005B0BDE8F0834FF0FF3006
:10345000F9E7000010B588B000240594069407AA87
:1034600006A905A800F08EFE059B0293069B01931A
:1034700000942346079A18491848FFF77BFF184B1A
:10348000186040B100F04CFB012806D0B0F1FF3FBE
:1034900018D008B010BD0020F6E74FF0500383F3BA
:1034A0001188BFF36F8FBFF34F8F0E4B4FF0FF327A
:1034B0001A600D4B01221A600C4B00221A6001F0B9
:1034C0009BF8E6E74FF0500383F31188BFF36F8F4B
:1034D000BFF34F8FFEE700BFEC480008D132000871
:1034E0002C07002030070020500700207C07002018
:1034F000024A136801331360704700BFF8060020CA
:10350000014B1868704700BF7C070020F8B53A4BA4
:103510001B68002B69D1394B1D6801351D60C5B989
:10352000374B1B681B6843B14FF0500383F311887E
:10353000BFF36F8FBFF34F8FFEE7314A1168314BF6
:10354000186810601960304A136801331360FFF780
:1035500089FD2E4B1B68AB423DD900272C4B1B68C5
:10356000DB6A03EB83039A002A4B9B58012B00D99B
:103570000127294B1B68002B3CD001273AE001278B
:103580001F4B1B681B6843B31D4B1B68DB68DC6863
:1035900063689D4226D3261D3046FFF783F9A36A50
:1035A0001BB104F11800FFF77DF9E36A1B4A1268AA
:1035B000934201D9194A136003EB83039A00314601
:1035C00014481044FFF74AF9E26A114B1B68DB6AA2
:1035D0009A42D4D2D4E70027D2E70C4B4FF0FF3207
:1035E0001A60BBE7094A1360B8E70D4A1368013354
:1035F000136000273846F8BDF80600207C0700203D
:10360000880200208C0200203407002030070020B0
:103610008402002090020020800700200007002084
:103620003807002038B5354B1B6843B94FF05003BD
:1036300083F31188BFF36F8FBFF34F8FFEE700F066
:1036400041FF2E4B1A68013A1A601B68002B4FD1BC
:103650002B4B1B680BB900244BE00024294B1B6843
:103660001BB3284BDB68DC6804F11800FFF71AF97C
:10367000251D2846FFF716F9E06A234B1B68984280
:1036800001D9214B186000EB800029461F4B03EB4A
:103690008000FFF7E3F8E26A1D4B1B68DB6A9A4281
:1036A000DCD31C4B01221A60D8E70CB1FFF7DAFC1F
:1036B000194B1C6884B9174B1C68D4B14FF0E02338
:1036C0004FF08052C3F8042DBFF34F8FBFF36F8FBD
:1036D00001240EE0013C07D0FFF718FF0028F9D0C5
:1036E0000C4B01221A60F5E70B4B00221A60E2E74F
:1036F000002400F009FF204638BD00BFF806002076
:10370000F00600203C070020000700209002002067
:1037100084020020800700203807002010B5A8B1DF
:103720000446104B1B6843B14FF0500383F31188DC
:10373000BFF36F8FBFF34F8FFEE7FFF7D9FE002176
:103740002046FFF7D9FDFFF76DFF48B94FF0E023A2
:103750004FF08052C3F8042DBFF34F8FBFF36F8F2C
:1037600010BD00BFF80600201F4B1B681BB11F4B8C
:1037700001221A6070471D4B00221A601C4B1B6807
:1037800003EB83018A001B498A585AB90BB1013BEC
:10379000F6E74FF0500383F31188BFF36F8FBFF349
:1037A0004F8FFEE703EB830082000A4450684068B5
:1037B000506003EB830C4FEA8C02083211448842BC
:1037C0000BD003EB830291000A4A0A445268D16885
:1037D000094A1160064A13607047406862469100CA
:1037E000044A0A445060ECE7F806002080070020F5
:1037F00000070020900200208402002058B110B57C
:103800000C46094A11681831FFF733F801212046A8
:10381000FFF772FD10BD4FF0500383F31188BFF323
:103820006F8FBFF34F8FFEE78402002038B570B171
:103830000D4614460A4A11681831FFF70FF80CB10B
:103840004FF0FF3521462846FFF756FD38BD4FF0B3
:10385000500383F31188BFF36F8FBFF34F8FFEE7E1
:103860008402002038B5C368DC6824B304F118056D
:103870002846FFF717F8184B1B682BBB251D284659
:10388000FFF710F8E06A154B1B68984201D9134BFB
:10389000186000EB80002946114B03EB8000FEF717
:1038A000DDFFE26A0F4B1B68DB6A9A4211D90120E7
:1038B0000D4B186038BD4FF0500383F31188BFF3F0
:1038C0006F8FBFF34F8FFEE729460848FEF7C6FF0C
:1038D000E7E70020EEE700BFF80600200007002021
:1038E0009002002084020020800700203C07002076
:1038F000034B1B680360034B1B684360704700BFAA
:10390000340700207C070020F8B5C8B10C460546F6
:10391000F9B100F0D7FD1B4B19686B68C81A226813
:10392000B2F1FF3F26D0184E36682F68B74201D05B
:103930008B4224D9824215D80023236001241AE047
:103940004FF0500383F31188BFF36F8FBFF34F8F96
:10395000FEE74FF0500383F31188BFF36F8FBFF37F
:103960004F8FFEE75B1A134423602846FFF7C0FF22
:10397000002400E0002400F0C7FD2046F8BD01242B
:10398000F9E700BF7C07002034070020014B01222B
:103990001A60704780070020054B1B6833B1054B48
:1039A0001B680BB100207047022070470120704750
:1039B00050070020F806002000283BD038B5044608
:1039C0001E4B1B68834208D04FF0500383F31188CD
:1039D000BFF36F8FBFF34F8FFEE7036D43B94FF017
:1039E000500383F31188BFF36F8FBFF34F8FFEE750
:1039F000013B0365C16AC26C91421DD00BB100202E
:103A000038BD051D2846FEF74DFFE06CE062C0F1B1
:103A10003803A3610A4B1B68984201D9084B186010
:103A200000EB80002946074B03EB8000FEF716FFF2
:103A30000120E5E7002070470020E1E78402002034
:103A40000007002090020020064B1A6813682BB96B
:103A50000123036023B9D368186870470023F8E78F
:103A6000002070478407002008B541600061914242
:103A70000CD8D21A83699A4201D3012008BD011DD6
:103A8000094B1868FEF7F5FE0020F7E79A4201D2CD
:103A9000994206D2011D054B1868FEF7EAFE002088
:103AA000ECE70120EAE700BF880700208407002038
:103AB00030B583B000F006FD114B1B681BB100F060
:103AC00023FD03B030BD0F4D2846FEF7B9FE0E4C66
:103AD0002046FEF7B5FE0D4B1D600D4B1C6000230C
:103AE00000930C4B0C4A10210A20FEF7E1FF044B17
:103AF00018600028E3D00949FFF776FADFE700BF36
:103B0000A80800202C08002040080020840700207E
:103B100088070020580800208C070020F44800087F
:103B200010B588B0FFF7C4FF124B1B68CBB100245F
:103B30000594069407AA06A905A800F02FFB059B8B
:103B40000293069B0193022300932346079A0A4996
:103B50000A48FFF70FFC0A4B186010B1012008B0AB
:103B600010BD4FF0500383F31188BFF36F8FBFF385
:103B70004F8FFEE7A8080020FC480008853E00089B
:103B8000AC080020B8B19C4603461848006858B3FA
:103B900000B585B000910192029305291CDCFFF766
:103BA000FBFE022810D000231A4669460F48006821
:103BB000FEF7ECFF15E04FF0500383F31188BFF3DD
:103BC0006F8FBFF34F8FFEE70023069A69460748C1
:103BD0000068FEF7DBFF04E0002362466946FFF75A
:103BE00099F805B05DF804FB00207047A808002094
:103BF00070B582B01B4B1B681A6862B3DB681E6825
:103C0000DC68251D2846FEF74DFE236A20469847AE
:103C100094F8283013F0040FECD0A36933449E428B
:103C200007D26360246129460E4B1868FEF721FE17
:103C3000E0E7002100910B4632462046FFF7A2FF45
:103C40000028D7D14FF0500383F31188BFF36F8F53
:103C5000BFF34F8FFEE7044A106802490860136003
:103C600002B070BD840700208807002038B50546E3
:103C7000FFF746FC0446074B1B68834205D8002328
:103C80002B60044B1C60204638BDFFF7B1FF0123B9
:103C90002B60F6E75408002070B582B006460D464A
:103CA00017490968C968CC68201DFEF7FBFD94F828
:103CB00028C01CF0040F08D12CF0010C84F828C097
:103CC000236A2046984702B070BDA16933462A4650
:103CD00031442046FFF7C8FE0028F1D000210091B2
:103CE0000B4632462046FFF74DFF0028E8D14FF043
:103CF000500383F31188BFF36F8FBFF34F8FFEE73D
:103D00008407002070B582B006460C46FFF7F0FB32
:103D100001A8FFF7ABFF019B33BB05460CB9B042CE
:103D200019D224B1124A12681268DAB90124224663
:103D3000711B104B1868FFF76BF9FFF773FCA8B9FC
:103D40004FF0E0234FF08052C3F8042DBFF34F8FA4
:103D5000BFF36F8F0AE0FFF765FC29463046FFF797
:103D60009BFF03E01C46E2E7FFF75CFC02B070BD7E
:103D700088070020A808002010B588B002E0049B46
:103D8000002B0FDA002204A93D4B1868FFF729F831
:103D9000002873D0049B002BF1DA07990698059B45
:103DA0009847ECE7069C636913B1201DFEF77AFD86
:103DB00003A8FFF75BFF049B092BE3D8DFE803F0C0
:103DC0000505053037500505303794F8283043F0A5
:103DD000010384F82830059BA16902461944204656
:103DE000FFF742FE0028CDD0236A2046984794F87A
:103DF000283013F0040FC5D0A269002100910B46B2
:103E0000059802442046FFF7BDFE0028BAD14FF0C6
:103E1000500383F31188BFF36F8FBFF34F8FFEE71B
:103E200094F8283023F0010384F82830AAE794F8A6
:103E3000283043F0010384F828300599A16131B19D
:103E40000346024601442046FFF70EFE9AE74FF074
:103E5000500383F31188BFF36F8FBFF34F8FFEE7DB
:103E600094F8283013F0020F04D023F0010384F8F3
:103E7000283087E7204600F07FFA83E708B010BDBE
:103E8000A808002000B583B001A8FFF7DDFD019967
:103E9000FFF738FFFFF770FFF6E708B54FF0E023B4
:103EA0001B69FFF779FD012800D108BD00F07AFBFE
:103EB000FBE70000EFF305832BB9064B186828B920
:103EC00001221A6070476FF0050070474FF0FF3015
:103ED000704700BF0C0B0020EFF3058373B90A4B4A
:103EE0001B68012B0DD110B50024084BDC77064B65
:103EF00002221A60FFF7AEFA204610BD6FF00500EF
:103F000070474FF0FF3070470C0B002000ED00E0D1
:103F1000F0B587B000240594EFF3058474BB68B353
:103F200022B31568936903B918235C1E372C49D84E
:103F3000546814F0010F47D156696EB14FEA960CE0
:103F400094682CB1D7685B2F02D9176907B1C6B93D
:103F50002CB14FF0FF340EE04FF0800CF0E7D46846
:103F60008CB9146994B14FF0FF3404E01546002475
:103F700018234FF0800C012C0AD0ACB1059807B083
:103F8000F0BD0124F7E74FF0FF34F4E70024F2E737
:103F9000146992680292019400930B466246294686
:103FA000FFF7E8F90590E9E705AA019200930B46AF
:103FB0001FFA8CF22946FFF718FA0128DED00023F9
:103FC0000593DBE70020DAE70020D8E708B5EFF338
:103FD000058333B908B9002008BDFFF79FFB002017
:103FE000FAE76FF00500F7E770B582B0EFF30583ED
:103FF000002B3AD1144600283BD000293BD06AB3AD
:1040000093684BB1D2684F2A06D9226922B101FBCD
:1040100000F56669AE421BD273B14FF0FF3363BB4C
:104020000022FEF78FFD054605B304B12468214642
:104030002846FEF7D9FF19E0E3688BB9236913B16D
:104040004FF0FF33EBE763696BB14FF0FF33E6E707
:1040500000250095FEF72CFD0546E5E70023DEE789
:104060004FF0FF33DBE70023D9E70025284602B0F5
:1040700070BD0025FAE70025F8E70025F6E710B542
:1040800082B01C46EFF30583C3B118B329B33CBB20
:104090000023019301AAFEF73DFE012823D10198D8
:1040A00050B14FF0E0234FF08052C3F8042DBFF31E
:1040B0004F8FBFF36F8F002002B010BDB0B1C1B100
:1040C00000232246FEF762FD012815D0B4B16FF03F
:1040D0000100F1E76FF00300EEE76FF00300EBE79C
:1040E0006FF00300E8E76FF00200E5E76FF0030010
:1040F000E2E76FF00300DFE70020DDE76FF002008A
:10410000DAE710B582B01C46EFF30583C3B110B3F4
:1041100021B334BB0023019301AAFEF711FF01284C
:1041200022D1019850B14FF0E0234FF08052C3F8F4
:10413000042DBFF34F8FBFF36F8F002002B010BD6F
:10414000A8B1B9B12246FEF74CFE012815D0B4B192
:104150006FF00100F2E76FF00300EFE76FF003008C
:10416000ECE76FF00300E9E76FF00200E6E76FF0BD
:104170000300E3E76FF00300E0E70020DEE76FF005
:104180000200DBE7034B0360034B0B6080231360EB
:10419000704700BFB00A0020B0080020034B036046
:1041A000034B0B604FF4807313607047100F0020B7
:1041B000100B0020124A12F0070F1ED0D11D21F063
:1041C0000701C1F5705313440A460E4802600021EE
:1041D00041601344083B23F007030B480360596018
:1041E0001960991A51601360084B1960084B1960E7
:1041F000084B4FF000421A6070474FF47053E4E7E9
:10420000700F0020844B00206C0F0020784B0020A2
:10421000744B0020704B0020164B1A461B688342DB
:10422000FBD3516802EB010C844509D0416800EBD7
:10423000010C634509D00360904219D010607047AB
:104240004068014451601046F0E710B40A4C2468FD
:10425000A3420BD05B681944416013681B6803607C
:10426000904200D010605DF8044B70470460F7E79F
:10427000704700BF844B00206C0F002070B50546CE
:10428000FFF736F9364B1B68A3B1364B1B681D424E
:104290004ED135B1083515F0070F02D025F00705CE
:1042A0000835002D46D0304B1B68AB4251D32F4A06
:1042B000146804E0FFF77EFFE7E722461C466368C8
:1042C000AB4202D22368002BF7D1254B1B68A342D7
:1042D00041D0166808362368136063685B1B102B97
:1042E00010D9601910F0070F08D04FF0500383F376
:1042F0001188BFF36F8FBFF34F8FFEE74360656098
:10430000FFF78AFF626818490B689B1A0B6018490F
:1043100009688B4201D216490B60124B1B6813438C
:10432000636000232360134A13680133136002E0C3
:10433000002600E00026FFF775F916F0070F0CD0F5
:104340004FF0500383F31188BFF36F8FBFF34F8F8C
:10435000FEE70026EFE70026EDE7304670BD00BF20
:104360006C0F0020704B0020744B0020844B002009
:10437000784B00207C4B0020002834D038B5044610
:10438000A0F1080550F8043C174A1268134208D1FE
:104390004FF0500383F31188BFF36F8FBFF34F8F3C
:1043A000FEE750F8081C41B14FF0500383F3118829
:1043B000BFF36F8FBFF34F8FFEE723EA020340F88E
:1043C000043CFFF795F854F8041C084A13680B44A2
:1043D00013602846FFF720FF054A13680133136076
:1043E000FFF720F938BD7047704B0020744B002058
:1043F000804B002082B0002301930D4B1B68B3F16A
:10440000FF3F08D04FF0500383F31188BFF36F8F45
:10441000BFF34F8FFEE74FF0500383F31188BFF3D4
:104420006F8FBFF34F8F019B002BFCD002B0704702
:104430005C00002008480068006880F308884FF09E
:10444000000080F3148862B661B6BFF34F8FBFF3EC
:104450006F8F00DF00BF000008ED00E0DFF80C0008
:10446000016841F4700101607047000088ED00E0D0
:104470004FF0807340F8043C21F0010140F8081C23
:10448000054B40F80C3C40F8202C6FF0020340F83C
:10449000243C4438704700BFF5430008000000008A
:1044A000074B19680868B0E8F04F80F30988BFF33C
:1044B0006F8F4FF0000080F311887047AFF30080DA
:1044C000840200204FF0500383F31188BFF36F8FF5
:1044D000BFF34F8F0B4A136801331360012B00D0D9
:1044E00070474FF0E023D3F8043D13F0FF0FF7D0EF
:1044F0004FF0500383F31188BFF36F8FBFF34F8FDB
:10450000FEE700BF5C000020094B1B6843B94FF079
:10451000500383F31188BFF36F8FBFF34F8FFEE714
:10452000013B034A13600BB983F31188704700BF46
:104530005C000020000000000000000000000000FF
:10454000EFF30980BFF36F8F154B1A681EF0100F41
:1045500008BF20ED108A20E9F04F10602DE9090016
:104560004FF0500080F31188BFF34F8FBFF36F8F70
:10457000FFF7FAF84FF0000080F3118809BC1968C2
:104580000868B0E8F04F1EF0100F08BFB0EC108ABA
:1045900080F30988BFF36F8F704700BFAFF30080CF
:1045A0008402002008B54FF0500383F31188BFF355
:1045B0006F8FBFF34F8FFEF7A9FF28B14FF0E023B5
:1045C0004FF08052C3F8042D002383F3118808BDF7
:1045D0004FF0E022002313619361054B1B680549EE
:1045E000A1FB03139B09013B536107231361704730
:1045F00058000020D34D62104FF0E023D3F8002D77
:104600003D4B9A421CD04FF0E023D3F8002D3B4B9A
:104610009A421ED030B583B0394B1A78D2B201928B
:10462000FF221A701B78DBB28DF803309DF803303F
:1046300003F05003334A1370334B07221A601BE018
:104640004FF0500383F31188BFF36F8FBFF34F8F89
:10465000FEE74FF0500383F31188BFF36F8FBFF372
:104660004F8FFEE7284A1368013B13609DF8033023
:104670005B00DBB28DF803309DF8033013F0800F40
:10468000F0D1214B1B68032B08D04FF0500383F36C
:104690001188BFF36F8FBFF34F8FFEE71B021A4ADB
:1046A000136003F4E0631360019BDBB2144A1370E0
:1046B0004FF0E024D4F8203D43F47003C4F8203DCB
:1046C000D4F8203D43F07043C4F8203DFFF780FF4D
:1046D00000250E4B1D60FFF7C1FED4F8343F43F0B8
:1046E0004043C4F8343FFFF7A5FEFFF73DF8FFF75E
:1046F00081FE284603B030BD71C20F4170C20F4128
:1047000000E400E08C4B0020904B00205C00002077
:10471000EFF305830F2B0FD9114A9B5CDBB2114AD3
:1047200012789A4208D94FF0500383F31188BFF3EF
:104730006F8FBFF34F8FFEE74FF0E023D3F80C3DB0
:1047400003F4E063084A1268934208D94FF050031B
:1047500083F31188BFF36F8FBFF34F8FFEE770476E
:10476000F0E300E08C4B0020904B0020DFF834D0C9
:10477000FDF7E2FF0C480D490D4A002302E0D45832
:10478000C4500433C4188C42F9D30A4A0A4C00239B
:1047900001E013600432A242FBD300F011F8FBF7F2
:1047A00031FF70470000032000000020600000205F
:1047B0001449000860000020944B0020FEE7000030
:1047C00070B50D4D0D4C641BA4100026A64209D1F6
:1047D0000B4D0C4C00F02EF8641BA4100026A642D2
:1047E00005D170BD55F8043B98470136EEE755F802
:1047F000043B98470136F2E70C4900080C490008D1
:104800000C490008104900080A44914200F1FF33A6
:1048100000D1704710B511F8014B03F8014F9142D8
:10482000F9D110BD02440346934200D1704703F80A
:10483000011BF9E7F8B500BFF8BC08BC9E467047FD
:0C484000F8B500BFF8BC08BC9E467047ED
:10484C000006101600061016000000000000000004
:10485C00010203040607080900000000010203041A
:10486C0042746E5175657565000000004D6F746F74
:10487C00725461736B00000042746E5461736B0070
:10488C006C48000800000000000000000000000060
:10489C000000000000000000844800080000000038
:1048AC0000000000000000000000000000020000FA
:1048BC00180000000000000000000000784800080C
:1048CC0000000000000000000000000000000000DC
:1048DC0000020000180000000000000000000000B2
:1048EC0049444C4500000000546D7251000000001A
:0848FC00546D72205376630035
:084904005CB9FF7F0100000017
:04490C00D5010008C9
:04491000B1010008E9
:1049140001010000000000000000000000003E4013
:1049240000000000000024409A9999999999A93FA0
:10493400000100000000000002000100000000006F
:104944000000000000003E40000000000000244081
:10495400000000000000F03F000100000000000023
:1049640001000000100000000024F400AAAAAAAA72
:040000050800476D3B
:00000001FF
